:020000040000FA
:06000000C6EF01F0120042
:020006000000F8
:08000800D9CFE6FFE1CFD9FFDB
:10001000040EE126DE6ADD6ADECF14F0DDCF15F0D6
:10002000FD0EDBCF16F0FE0EDBCF17F015501718C4
:10003000E8AE02D0173404D01650145C175015588F
:100040001DE2020EDB6A030EDB6A020EDBCF14F048
:10005000030EDBCF15F0D890155004E6F40E145CB7
:10006000010E155806E2020EDB2A030E01E3DB2A1D
:10007000ECD7DF2A010E01E3DB2ACED7040EE15CC8
:1000800002E2E16AE552E16EE552E7CFD9FF1200E4
:10009000D9CFE6FFE1CFD9FF220EE126800EDE6E3A
:1000A000DD6AC00EF36E020EF3CFDBFF030EDB6AD8
:1000B000E00EF36E040EF3CFDBFF050EDB6AF00EED
:1000C000F36E060EF3CFDBFF070EDB6AF80EF36E5E
:1000D000080EF3CFDBFF090EDB6AFC0EF36E0A0E8F
:1000E000F3CFDBFF0B0EDB6AFE0EF36E0C0EF3CFCD
:1000F000DBFF0D0EDB6A0E0EDB680F0EDB6A7F0E78
:10010000F36E100EF3CFDBFF110EDB6A3F0EF36EC2
:10011000120EF3CFDBFF130EDB6A1F0EF36E140E0D
:10012000F3CFDBFF150EDB6A0F0EF36E160EF3CF67
:10013000DBFF170EDB6A070EF36E180EF3CFDBFF43
:10014000190EDB6A030EF36E1A0EF3CFDBFF1B0EE4
:10015000DB6A010EF36E1C0EF3CFDBFF1D0EDB6AB4
:100160001E0EDB6A1F0EDB6A946A826A200EDB6A4F
:10017000210EDB6A200EDBCF14F0210EDBCF15F051
:10018000D890155004E6080E145C000E155823E2B2
:10019000D9CF14F0DACF15F0020E086E096A200EDE
:1001A000DBCF0DF0210EDBCF0EF089EC01F0145007
:1001B0000624E96E15500720EA6EEF50826EC80ED5
:1001C000E66EE66A21DFE552E552200EDB2A210EBB
:1001D00001E3DB2ACFD7F40EE66E010EE66E14DFE4
:1001E000E552E552200EDB6A210EDB6A200EDBCFE2
:1001F00014F0210EDBCF15F0D890155004E6080E50
:10020000145C000E155824E2D950100F146EDACF8A
:1002100015F0020E086E096A200EDBCF0DF0210EDC
:10022000DBCF0EF089EC01F014500624E96E155076
:100230000720EA6EEF50826EC80EE66EE66AE4DED4
:10024000E552E552200EDB2A210E01E3DB2ACED750
:10025000F40EE66E010EE66ED7DEE552E55286D765
:10026000220EE15C02E2E16AE552E16EE552E7CF7F
:04027000D9FF1200A0
:0C027400060EF66E000EF76E000EF86E1F
:1002800000010900F550656F0900F550666F03E144
:10029000656701D03DD00900F550606F0900F55049
:1002A000616F0900F550626F09000900F550E96EB1
:1002B0000900F550EA6E090009000900F550636F66
:1002C0000900F550646F09000900F6CF67F0F7CF19
:1002D00068F0F8CF69F060C0F6FF61C0F7FF62C058
:1002E000F8FF0001635302E1645307E00900F55091
:1002F000EE6E6307F8E26407F9D767C0F6FF68C0DF
:10030000F7FF69C0F8FF00016507000E665BBFD705
:020310001200D9
:0E03120009C013F008C012F008500D02F4CF1D
:1003200007F0F3CF06F009500E02F4CF09F0F3CF37
:1003300008F00D02F3500726F4500822E86A09225B
:1003400012500E02F3500726F4500822E86A0922E0
:100350000EAEAFEF01F01250085E1350095A13AE03
:0C036000000C0D50085E0E50095A000CF5
:04036C00000EF36E1E
:1003700000EE00F0060E01D81200EA6002D0EE6A2C
:0C038000FCD7F350E9601200EE6AFCD7D5
:04038C0015EE00F07A
:1003900025EE00F0F86A019C3AEC01F0D4EC01F093
:0803A00048EC00F0FBD712004D
:0203A800120041
:00000001FF
