:020000040000FA
:06000000C1EF00F0120048
:020006000000F8
:08000800D9CFE6FFE1CFD9FFDB
:10001000040EE126DE6ADD6ADECF00F0DDCF01F0FE
:10002000FD0EDBCF02F0FE0EDBCF03F00150031814
:10003000E8AE02D0033404D00250005C03500158F3
:1000400024E2020EDB6A030EDB6A020EDBCF00F055
:10005000030EDBCF01F0DECF02F0DDCF03F0015065
:100060000318E8AE02D0033404D00250005C035001
:10007000015806E2020EDB2A030E01E3DB2AE5D774
:10008000DF2A010E01E3DB2AC7D7040EE15C02E29E
:10009000E16AE552E16EE552E7CFD9FF120095988B
:1000A0008388F40EE66E010EE66EAEDFE552E55291
:1000B0008398F40EE66E010EE66EA6DFE552E55279
:0400C000EFD7120064
:0C00C400060EF66E000EF76E000EF86ED1
:1000D00000010900F550656F0900F550666F03E1F6
:1000E000656701D03DD00900F550606F0900F550FB
:1000F000616F0900F550626F09000900F550E96E63
:100100000900F550EA6E090009000900F550636F17
:100110000900F550646F09000900F6CF67F0F7CFCA
:1001200068F0F8CF69F060C0F6FF61C0F7FF62C009
:10013000F8FF0001635302E1645307E00900F55042
:10014000EE6E6307F8E26407F9D767C0F6FF68C090
:10015000F7FF69C0F8FF00016507000E665BBFD7B7
:0201600012008B
:0E016200000EF36E00EE00F0060E01D8120043
:10017000EA6002D0EE6AFCD7F350E9601200EE6A42
:02018000FCD7AA
:0E01820015EE00F025EE00F0F86A059C62EC28
:0E01900000F0CFEC00F04FEC00F0FBD71200B7
:02019E0012004D
:00000001FF
