:020000040000FA
:060000006AEF01F012009E
:020006000000F8
:08000800D9CFE6FFE1CFD9FFDB
:10001000040EE126DE6ADD6ADECF00F0DDCF01F0FE
:10002000FD0EDBCF02F0FE0EDBCF03F00150031814
:10003000E8AE02D0033404D00250005C03500158F3
:1000400024E2020EDB6A030EDB6A020EDBCF00F055
:10005000030EDBCF01F0DECF02F0DDCF03F0015065
:100060000318E8AE02D0033404D00250005C035001
:10007000015806E2020EDB2A030E01E3DB2AE5D774
:10008000DF2A010E01E3DB2AC7D7040EE15C02E29E
:10009000E16AE552E16EE552E7CFD9FF1200D9CF10
:1000A000E6FFE1CFD9FFFE0EDB50836E82808292A5
:1000B0008284640EE66EE66AA7DFE552E55282941A
:1000C000E552E7CFD9FF1200D9CFE6FFE1CFD9FF44
:1000D000FD0EDB50836E829082928284640EE66E07
:1000E000E66A92DFE552E5528294E552E7CFD9FF06
:1000F0001200D9CFE6FFE1CFD9FFFD0EDBCFF6FF2F
:10010000FE0EDBCFF7FF0800F5500FE0FD0EDBCF52
:10011000F6FFDB2AFE0EDBCFF7FF01E3DB2A080048
:10012000F550E66EBCDFE552E8D7E552E7CFD9FFE0
:100130001200956A9490949294940F0EE66EE66A7B
:10014000C3DFE552E552010EE66EE66ABDDFE55219
:10015000E552060EE66EE66AB7DFE552E552380E66
:10016000E66EE66AB1DFE552E552800EE66EE66ABB
:10017000ABDFE552E552830EE66EE66AA5DFE55297
:10018000E552050EE66E030EE66EB3DFE552E5526C
:10019000C30EE66EE66A98DFE552E552FD0EE66EA6
:1001A000020EE66EA6DFE552E552F40EE66E010E93
:1001B000E66E2ADFE552E552010EE66EE66A84DF5E
:1001C000E552E552830EE66EE66A7EDFE552E552C1
:1001D000F50EE66E020EE66E8CDFE552E552C30EBA
:1001E000E66EE66A71DFE552E552F00EE66E020E4B
:1001F000E66E7FDFE552E552F40EE66E010EE66E26
:1002000003DFE552E552010EE66EE66A5DDFE55278
:06021000E552B1D7120017
:0A021600060EF66E000EF76E000EE5
:10022000F86E00010900F550656F0900F550666F22
:1002300003E1656701D03DD00900F550606F09000A
:10024000F550616F0900F550626F09000900F55023
:10025000E96E0900F550EA6E090009000900F55041
:10026000636F0900F550646F09000900F6CF67F06D
:10027000F7CF68F0F8CF69F060C0F6FF61C0F7FF14
:1002800062C0F8FF0001635302E1645307E0090014
:10029000F550EE6E6307F8E26407F9D767C0F6FF22
:1002A00068C0F7FF69C0F8FF00016507000E665BD4
:0402B000BFD71200A2
:0C02B400000EF36E00EE00F0060E01D804
:1002C0001200EA6002D0EE6AFCD7F350E960120037
:0402D000EE6AFCD7FF
:0C02D40015EE00F025EE00F0F86A059C25
:1002E0000BEC01F086EC01F099EC00F0FBD712006A
:1002F00050756E6500464320526F6164005363720F
:0C0300006970747300546563686E6F00D0
:02030C001200DD
:00000001FF
