:020000040000FA
:060000006CEF01F012009C
:020006000000F8
:08000800D9CFE6FFE1CFD9FFDB
:10001000040EE126DE6ADD6ADECF14F0DDCF15F0D6
:10002000FD0EDBCF16F0FE0EDBCF17F015501718C4
:10003000E8AE02D0173404D01650145C175015588F
:1000400024E2020EDB6A030EDB6A020EDBCF14F041
:10005000030EDBCF15F0DECF16F0DDCF17F0155015
:100060001718E8AE02D0173404D01650145C17509D
:10007000155806E2020EDB2A030E01E3DB2AE5D760
:10008000DF2A010E01E3DB2AC7D7040EE15C02E29E
:10009000E16AE552E16EE552E7CFD9FF1200D9CF10
:1000A000E6FFE1CFD9FF160EE1263F0EDE6EDD6AD8
:1000B000060EF36E020EF3CFDBFF030EDB6A5B0E60
:1000C000F36E040EF3CFDBFF050EDB6A4F0EF36E0B
:1000D000060EF3CFDBFF070EDB6A660EF36E080E2B
:1000E000F3CFDBFF090EDB6A6D0EF36E0A0EF3CF62
:1000F000DBFF0B0EDB6A7D0EF36E0C0EF3CFDBFF26
:100100000D0EDB6A070EF36E0E0EF3CFDBFF0F0E44
:10011000DB6A7F0EF36E100EF3CFDBFF110EDB6A8E
:100120006F0EF36E120EF3CFDBFF130EDB6A140EAD
:10013000DB6A150EDB6A956A010EF36E140EF3CFBF
:10014000DBFF150EDB6A140EDBCF14F0150EDBCFD0
:1001500015F0D890155004E60A0E145C000E1558E0
:1001600024E2D9CF14F0DACF15F0020E086E096A36
:10017000140EDBCF0DF0150EDBCF0EF02FEC01F0DF
:1001800014500624E96E15500720EA6EEF50836E76
:100190002C0EE66E010EE66E37DFE552E552140EC8
:1001A000DB2A150E01E3DB2ACED7C6D7160EE15C9B
:1001B00002E2E16AE552E16EE552E7CFD9FF1200B3
:1001C000060EF66E000EF76E000EF86E00010900C6
:1001D000F550656F0900F550666F03E1656701D062
:1001E0003DD00900F550606F0900F550616F0900BE
:1001F000F550626F09000900F550E96E0900F550ED
:10020000EA6E090009000900F550636F0900F55016
:10021000646F09000900F6CF67F0F7CF68F0F8CFF8
:1002200069F060C0F6FF61C0F7FF62C0F8FF00012F
:10023000635302E1645307E00900F550EE6E630773
:10024000F8E26407F9D767C0F6FF68C0F7FF69C036
:0E025000F8FF00016507000E665BBFD71200C5
:02025E0009C0D5
:1002600013F008C012F008500D02F4CF07F0F3CFDE
:1002700006F009500E02F4CF09F0F3CF08F00D029A
:10028000F3500726F4500822E86A092212500E02A1
:10029000F3500726F4500822E86A09220EAE55EF03
:1002A00001F01250085E1350095A13AE000C0D50A5
:0802B000085E0E50095A000C13
:0802B800000EF36E00EE00F0F1
:1002C000060E01D81200EA6002D0EE6AFCD7F350A5
:0802D000E9601200EE6AFCD7A0
:0802D80015EE00F025EE00F028
:1002E000F86A019CE0EC00F07AEC01F04FEC00F0D1
:0402F000FBD7120026
:0202F4001200F6
:00000001FF
