:020000040000FA
:0600000031EF01F01200D7
:020006000000F8
:08000800D9CFE6FFE1CFD9FFDB
:10001000040EE126DE6ADD6ADECF00F0DDCF01F0FE
:10002000FD0EDBCF02F0FE0EDBCF03F00150031814
:10003000E8AE02D0033404D00250005C03500158F3
:1000400024E2020EDB6A030EDB6A020EDBCF00F055
:10005000030EDBCF01F0DECF02F0DDCF03F0015065
:100060000318E8AE02D0033404D00250005C035001
:10007000015806E2020EDB2A030E01E3DB2AE5D774
:10008000DF2A010E01E3DB2AC7D7040EE15C02E29E
:10009000E16AE552E16EE552E7CFD9FF1200D9CF10
:1000A000E6FFE1CFD9FFFE0EDB50836E82808282B5
:1000B000640EE66EE66AA8DFE552E5528292E552EA
:1000C000E7CFD9FF1200D9CFE6FFE1CFD9FFFD0E70
:1000D000DB50836E82908282640EE66EE66A94DF65
:1000E000E552E5528292E552E7CFD9FF12000F0E9A
:1000F000E66EE66AE8DFE552E552010EE66EE66A74
:10010000E2DFE552E552060EE66EE66ADCDFE55216
:10011000E552380EE66EE66AD6DFE552E552800E0D
:10012000E66EE66AD0DFE552E5521200D9CFE6FF6F
:10013000E1CFD9FFFD0EDBCFF6FFFE0EDBCFF7FFE1
:100140000800F5500FE0FD0EDBCFF6FFDB2AFE0EB8
:10015000DBCFF7FF01E3DB2A0800F550E66E9FDFF7
:10016000E552E8D7E552E7CFD9FF1200D9CFE6FF35
:10017000E1CFD9FF0C0EE126020EDB6A030EDB6A2B
:10018000956A94909492C26E0E0EC16E880EC06EE7
:100190000C0EE15C02E2E16AE552E16EE552E7CF66
:0401A000D9FF120071
:0C01A400060EF66E000EF76E000EF86EF0
:1001B00000010900F550656F0900F550666F03E115
:1001C000656701D03DD00900F550606F0900F5501A
:1001D000616F0900F550626F09000900F550E96E82
:1001E0000900F550EA6E090009000900F550636F37
:1001F0000900F550646F09000900F6CF67F0F7CFEA
:1002000068F0F8CF69F060C0F6FF61C0F7FF62C028
:10021000F8FF0001635302E1645307E00900F55061
:10022000EE6E6307F8E26407F9D767C0F6FF68C0AF
:10023000F7FF69C0F8FF00016507000E665BBFD7D6
:020240001200AA
:0E024200000EF36E00EE00F0060E01D8120062
:10025000EA6002D0EE6AFCD7F350E9601200EE6A61
:02026000FCD7C9
:0E02620015EE00F025EE00F0F86A059CD2ECD7
:0E02700000F03FEC01F0B6EC00F0FBD71200FE
:02027E0012006C
:00000001FF
