:020000040000FA
:06000000EFEF01F0120019
:020006001200E6
:08000800DACFE4FFE2CFDAFFDA
:10001000E9CFE4FFEACFE4FFF6CFE4FFF7CFE4FF58
:10002000F5CFE4FFF3CFE4FFF4CFE4FFFACFE4FF32
:1000300000EE04F0020EE80403E3EECFE4FFFBD78A
:1000400000EE00F0040EE80403E3EECFE4FFFBD77C
:10005000E652F2A2FED7010EE66EE66AE7EC00F089
:10006000E552E5529C0EE66E030EE66E0FEC01F0D3
:10007000E552E55200016A6B6B6B050E6BAF02D067
:10008000D89003D06A5D000E6B5915E28182640E30
:10009000E66EE66A9CEC00F0E552E5528192640E51
:1000A000E66EE66A9CEC00F0E552E55200016A2B30
:1000B000000E6B23E2D7640EE66EE66A9CEC00F05D
:1000C000E552E552010EE66EE66AE7EC00F0E55215
:1000D000E552800EE66EE66AE7EC00F0E552E55286
:1000E000F292E55200EE03F0040EE80403E3E5CFDC
:1000F000EDFFFBD700EE05F0020EE80403E3E5CFC9
:10010000EDFFFBD7E5CFFAFFE5CFF4FFE5CFF3FF37
:10011000E5CFF5FFE5CFF7FFE5CFF6FFE5CFEAFF47
:0A012000E5CFE9FFE5CFDAFF11009B
:06012A000100FA030000D1
:080130006A000000020000005B
:08013800D9CFE6FFE1CFD9FFAA
:10014000040EE126DE6ADD6ADECF00F0DDCF01F0CD
:10015000FD0EDBCF02F0FE0EDBCF03F001500318E3
:10016000E8AE02D0033404D00250005C03500158C2
:1001700024E2020EDB6A030EDB6A020EDBCF00F024
:10018000030EDBCF01F0DECF02F0DDCF03F0015034
:100190000318E8AE02D0033404D00250005C0350D0
:1001A000015806E2020EDB2A030E01E3DB2AE5D743
:1001B000DF2A010E01E3DB2AC7D7040EE15C02E26D
:1001C000E16AE552E16EE552E7CFD9FF1200D9CFDF
:1001D000E6FFE1CFD9FFFD0EDB50836E8290828275
:1001E000320EE66EE66AA8DFE552E5528292E552EB
:1001F000E7CFD9FF1200D9CFE6FFE1CFD9FFFE0E3E
:10020000DB50836E82808282320EE66EE66A94DF75
:10021000E552E5528292E552E7CFD9FF1200D9CFDD
:10022000E6FFE1CFD9FFFD0EDBCFF6FFFE0EDBCF01
:10023000F7FF0800F5500FE0FD0EDBCFF6FFDB2ADD
:10024000FE0EDBCFF7FF01E3DB2A0800F550E66E78
:10025000D2DFE552E8D7E552E7CFD9FF12000F0E03
:10026000E66EE66AB4DFE552E552010EE66EE66A36
:10027000AEDFE552E552060EE66EE66AA8DFE5520D
:10028000E552380EE66EE66AA2DFE552E552800ED0
:10029000E66EE66A9CDFE552E5521200946A956AC2
:1002A0000F0EC16EDCDFD09E900EF26EF19CB30E8D
:1002B000E66E030EE66EB3DFE552E5520C0EE66E17
:1002C000E66A85DFE552E552A90EE66E030EE66E9C
:1002D000A6DFE552E552C80EE66EE66A2DDFE5526E
:1002E000E552010EE66EE66A72DFE552E552800ED7
:0E02F000E66EE66A6CDFE552E552D9D71200E1
:0202FE002A0EC6
:10030000F66E010EF76E000EF86E00010900F55052
:10031000656F0900F550666F03E1656701D03DD058
:100320000900F550606F0900F550616F0900F55044
:10033000626F09000900F550E96E0900F550EA6E98
:10034000090009000900F550636F0900F550646F5A
:1003500009000900F6CF67F0F7CF68F0F8CF69F031
:1003600060C0F6FF61C0F7FF62C0F8FF0001635391
:1003700002E1645307E00900F550EE6E6307F8E20E
:100380006407F9D767C0F6FF68C0F7FF69C0F8FFD8
:0C03900000016507000E665BBFD712007D
:04039C00494E54452D
:1003A0005252555054204F4E00457665637574691E
:0D03B0006F6E004D61696E5F436F64650004
:0203BE00000E2F
:1003C000F36E00EE00F0060E01D81200EA6002D0D3
:0E03D000EE6AFCD7F350E9601200EE6AFCD72B
:0203DE0015EE1A
:1003E00000F025EE00F0F86A059C7FEC01F003ECCC
:0A03F00000F04EEC01F0FBD7120004
:0203FA00000001
:00000001FF
