:020000040000FA
:0600000067EF01F01200A1
:020006000000F8
:08000800D9CFE6FFE1CFD9FFDB
:10001000040EE126DE6ADD6ADECF00F0DDCF01F0FE
:10002000FD0EDBCF02F0FE0EDBCF03F00150031814
:10003000E8AE02D0033404D00250005C03500158F3
:1000400024E2020EDB6A030EDB6A020EDBCF00F055
:10005000030EDBCF01F0DECF02F0DDCF03F0015065
:100060000318E8AE02D0033404D00250005C035001
:10007000015806E2020EDB2A030E01E3DB2AE5D774
:10008000DF2A010E01E3DB2AC7D7040EE15C02E29E
:10009000E16AE552E16EE552E7CFD9FF1200D9CF10
:1000A000E6FFE1CFD9FFFE0EDB50836E82808282B5
:1000B000640EE66EE66AA8DFE552E5528292E552EA
:1000C000E7CFD9FF1200D9CFE6FFE1CFD9FFFD0E70
:1000D000DB50836E82908282640EE66EE66A94DF65
:1000E000E552E5528292E552E7CFD9FF1200D9CF0F
:1000F000E6FFE1CFD9FFFD0EDBCFF6FFFE0EDBCF33
:10010000F7FF0800F5500FE0FD0EDBCFF6FFDB2A0E
:10011000FE0EDBCFF7FF01E3DB2A0800F550E66EA9
:10012000BEDFE552E8D7E552E7CFD9FF1200956A66
:10013000949094920F0EE66EE66AC5DFE552E552A2
:10014000010EE66EE66ABFDFE552E552060EE66E88
:10015000E66AB9DFE552E552380EE66EE66AB3DFCD
:10016000E552E552800EE66EE66AADDFE552E552F5
:10017000830EE66EE66AA7DFE552E552FC0EE66EF8
:10018000020EE66EB4DFE552E552C30EE66EE66A95
:100190009ADFE552E552F40EE66E020EE66EA7DF38
:1001A000E552E552E80EE66E030EE66E2DDFE552EF
:1001B000E552010EE66EE66A86DFE552E552830EF1
:1001C000E66EE66A80DFE552E552EF0EE66E020E5D
:1001D000E66E8DDFE552E552C30EE66EE66A73DF2A
:1001E000E552E552EA0EE66E020EE66E80DFE5525B
:1001F000E552E80EE66E030EE66E06DFE552E552C6
:10020000010EE66EE66A5FDFE552E552B1D71200F5
:10021000060EF66E000EF76E000EF86E0001090075
:10022000F550656F0900F550666F03E1656701D011
:100230003DD00900F550606F0900F550616F09006D
:10024000F550626F09000900F550E96E0900F5509C
:10025000EA6E090009000900F550636F0900F550C6
:10026000646F09000900F6CF67F0F7CF68F0F8CFA8
:1002700069F060C0F6FF61C0F7FF62C0F8FF0001DF
:10028000635302E1645307E00900F550EE6E630723
:10029000F8E26407F9D767C0F6FF68C0F7FF69C0E6
:0E02A000F8FF00016507000E665BBFD7120075
:0202AE00000E40
:1002B000F36E00EE00F0060E01D81200EA6002D0E4
:0E02C000EE6AFCD7F350E9601200EE6AFCD73C
:0202CE0015EE2B
:1002D00000F025EE00F0F86A059C08EC01F081ECD6
:0A02E00001F097EC00F0FBD71200CC
:0602EA0050554E45004492
:1002F000415441005355524E414D45004E414D45EC
:0103000000FC
:020302001200E7
:00000001FF
