:020000040000FA
:0600000007EF01F0120001
:020006000000F8
:08000800D9CFE6FFE1CFD9FFDB
:10001000040EE126DE6ADD6ADECF00F0DDCF01F0FE
:10002000FD0EDBCF02F0FE0EDBCF03F00150031814
:10003000E8AE02D0033404D00250005C03500158F3
:100040001DE2020EDB6A030EDB6A020EDBCF00F05C
:10005000030EDBCF01F0D890015004E67B0E005C6C
:10006000000E015806E2020EDB2A030E01E3DB2A32
:10007000ECD7DF2A010E01E3DB2ACED7040EE15CC8
:1000800002E2E16AE552E16EE552E7CFD9FF1200E4
:10009000D9CFE6FFE1CFD9FF0C0EE126D9CFE9FF9A
:1000A000DACFEAFF540EEE6E450EEE6E430EEE6EA4
:1000B000480EEE6E4E0EEE6E4F0EEE6E5F0EEE6E54
:1000C0000D0EEE6E0A0EEE6EEE6A949C948E240E69
:1000D000AC6E900EAB6E810EAF6E0A0EDB6A0B0E2D
:1000E000DB6AD9CF00F0DACF01F00A0EDB50002432
:1000F000E96E0B0EDB500120EA6EEF501EE0D9CF07
:1001000000F0DACF01F00A0EDB500024E96E0B0E8E
:10011000DB500120EA6EEF50AD6E9EA8FED79E9890
:10012000E80EE66E030EE66E6FDFE552E5520A0E4C
:10013000DB2A0B0E01E3DB2AD4D7CFD70C0EE15C10
:1001400002E2E16AE552E16EE552E7CFD9FF120023
:10015000060EF66E000EF76E000EF86E0001090036
:10016000F550656F0900F550666F03E1656701D0D2
:100170003DD00900F550606F0900F550616F09002E
:10018000F550626F09000900F550E96E0900F5505D
:10019000EA6E090009000900F550636F0900F55087
:1001A000646F09000900F6CF67F0F7CF68F0F8CF69
:1001B00069F060C0F6FF61C0F7FF62C0F8FF0001A0
:1001C000635302E1645307E00900F550EE6E6307E4
:1001D000F8E26407F9D767C0F6FF68C0F7FF69C0A7
:0E01E000F8FF00016507000E665BBFD7120036
:0201EE00000E01
:1001F000F36E00EE00F0060E01D81200EA6002D0A5
:0E020000EE6AFCD7F350E9601200EE6AFCD7FC
:02020E0015EEEB
:1002100000F025EE00F0F86A059CA8EC00F015EC63
:0A02200001F048EC00F0FBD71200DB
:02022A001200C0
:00000001FF
